{
  "_format": "hh-sol-artifact-1",
  "contractName": "DocumentVerification",
  "sourceName": "contracts/DocumentVerification.sol",
  "abi": [
    {
      "anonymous": false,
      "inputs": [
        {
          "indexed": true,
          "internalType": "string",
          "name": "fileHash",
          "type": "string"
        },
        {
          "indexed": false,
          "internalType": "string",
          "name": "fileName",
          "type": "string"
        },
        {
          "indexed": false,
          "internalType": "string",
          "name": "shipmentId",
          "type": "string"
        },
        {
          "indexed": false,
          "internalType": "address",
          "name": "uploadedBy",
          "type": "address"
        },
        {
          "indexed": false,
          "internalType": "uint256",
          "name": "uploadedAt",
          "type": "uint256"
        }
      ],
      "name": "DocumentStored",
      "type": "event"
    },
    {
      "inputs": [
        {
          "internalType": "string",
          "name": "fileHash",
          "type": "string"
        }
      ],
      "name": "getDocument",
      "outputs": [
        {
          "components": [
            {
              "internalType": "string",
              "name": "fileHash",
              "type": "string"
            },
            {
              "internalType": "string",
              "name": "fileName",
              "type": "string"
            },
            {
              "internalType": "string",
              "name": "shipmentId",
              "type": "string"
            },
            {
              "internalType": "address",
              "name": "uploadedBy",
              "type": "address"
            },
            {
              "internalType": "uint256",
              "name": "uploadedAt",
              "type": "uint256"
            },
            {
              "internalType": "bool",
              "name": "exists",
              "type": "bool"
            }
          ],
          "internalType": "struct DocumentVerification.Document",
          "name": "",
          "type": "tuple"
        }
      ],
      "stateMutability": "view",
      "type": "function"
    },
    {
      "inputs": [
        {
          "internalType": "string",
          "name": "fileHash",
          "type": "string"
        },
        {
          "internalType": "string",
          "name": "fileName",
          "type": "string"
        },
        {
          "internalType": "string",
          "name": "shipmentId",
          "type": "string"
        }
      ],
      "name": "storeDocument",
      "outputs": [],
      "stateMutability": "nonpayable",
      "type": "function"
    },
    {
      "inputs": [
        {
          "internalType": "string",
          "name": "fileHash",
          "type": "string"
        }
      ],
      "name": "verifyDocument",
      "outputs": [
        {
          "internalType": "bool",
          "name": "isVerified",
          "type": "bool"
        },
        {
          "internalType": "string",
          "name": "fileName",
          "type": "string"
        },
        {
          "internalType": "string",
          "name": "shipmentId",
          "type": "string"
        },
        {
          "internalType": "address",
          "name": "uploadedBy",
          "type": "address"
        },
        {
          "internalType": "uint256",
          "name": "uploadedAt",
          "type": "uint256"
        }
      ],
      "stateMutability": "view",
      "type": "function"
    }
  ],
  "bytecode": "0x608060405234801561001057600080fd5b506112af806100206000396000f3fe608060405234801561001057600080fd5b50600436106100415760003560e01c80637ccb6a6414610046578063beee5eb714610076578063f2d893e4146100aa575b600080fd5b610060600480360381019061005b9190610a3c565b6100c6565b60405161006d9190610c10565b60405180910390f35b610090600480360381019061008b9190610a3c565b61039d565b6040516100a1959493929190610ca9565b60405180910390f35b6100c460048036038101906100bf9190610d0a565b61066f565b005b6100ce610894565b6000826040516100de9190610ded565b908152602001604051809103902060050160009054906101000a900460ff1661013c576040517f08c379a000000000000000000000000000000000000000000000000000000000815260040161013390610e50565b60405180910390fd5b60008260405161014c9190610ded565b90815260200160405180910390206040518060c001604052908160008201805461017590610e9f565b80601f01602080910402602001604051908101604052809291908181526020018280546101a190610e9f565b80156101ee5780601f106101c3576101008083540402835291602001916101ee565b820191906000526020600020905b8154815290600101906020018083116101d157829003601f168201915b5050505050815260200160018201805461020790610e9f565b80601f016020809104026020016040519081016040528092919081815260200182805461023390610e9f565b80156102805780601f1061025557610100808354040283529160200191610280565b820191906000526020600020905b81548152906001019060200180831161026357829003601f168201915b5050505050815260200160028201805461029990610e9f565b80601f01602080910402602001604051908101604052809291908181526020018280546102c590610e9f565b80156103125780601f106102e757610100808354040283529160200191610312565b820191906000526020600020905b8154815290600101906020018083116102f557829003601f168201915b505050505081526020016003820160009054906101000a900473ffffffffffffffffffffffffffffffffffffffff1673ffffffffffffffffffffffffffffffffffffffff1673ffffffffffffffffffffffffffffffffffffffff168152602001600482015481526020016005820160009054906101000a900460ff1615151515815250509050919050565b6000606080600080600080876040516103b69190610ded565b90815260200160405180910390206040518060c00160405290816000820180546103df90610e9f565b80601f016020809104026020016040519081016040528092919081815260200182805461040b90610e9f565b80156104585780601f1061042d57610100808354040283529160200191610458565b820191906000526020600020905b81548152906001019060200180831161043b57829003601f168201915b5050505050815260200160018201805461047190610e9f565b80601f016020809104026020016040519081016040528092919081815260200182805461049d90610e9f565b80156104ea5780601f106104bf576101008083540402835291602001916104ea565b820191906000526020600020905b8154815290600101906020018083116104cd57829003601f168201915b5050505050815260200160028201805461050390610e9f565b80601f016020809104026020016040519081016040528092919081815260200182805461052f90610e9f565b801561057c5780601f106105515761010080835404028352916020019161057c565b820191906000526020600020905b81548152906001019060200180831161055f57829003601f168201915b505050505081526020016003820160009054906101000a900473ffffffffffffffffffffffffffffffffffffffff1673ffffffffffffffffffffffffffffffffffffffff1673ffffffffffffffffffffffffffffffffffffffff168152602001600482015481526020016005820160009054906101000a900460ff16151515158152505090508060a001516106445760008060006040518060200160405280600081525091906040518060200160405280600081525091909550955095509550955050610666565b6001816020015182604001518360600151846080015195509550955095509550505b91939590929450565b60008351116106b3576040517f08c379a00000000000000000000000000000000000000000000000000000000081526004016106aa90610f1c565b60405180910390fd5b6000836040516106c39190610ded565b908152602001604051809103902060050160009054906101000a900460ff1615610722576040517f08c379a000000000000000000000000000000000000000000000000000000000815260040161071990610f88565b60405180910390fd5b6040518060c001604052808481526020018381526020018281526020013373ffffffffffffffffffffffffffffffffffffffff168152602001428152602001600115158152506000846040516107789190610ded565b9081526020016040518091039020600082015181600001908161079b9190611154565b5060208201518160010190816107b19190611154565b5060408201518160020190816107c79190611154565b5060608201518160030160006101000a81548173ffffffffffffffffffffffffffffffffffffffff021916908373ffffffffffffffffffffffffffffffffffffffff1602179055506080820151816004015560a08201518160050160006101000a81548160ff0219169083151502179055509050508260405161084a9190610ded565b60405180910390207f60c284e81612cab738fe57e95bc02b0db52ad6c5e48abf99fa0df115ada669bd838333426040516108879493929190611226565b60405180910390a2505050565b6040518060c00160405280606081526020016060815260200160608152602001600073ffffffffffffffffffffffffffffffffffffffff168152602001600081526020016000151581525090565b6000604051905090565b600080fd5b600080fd5b600080fd5b600080fd5b6000601f19601f8301169050919050565b7f4e487b7100000000000000000000000000000000000000000000000000000000600052604160045260246000fd5b61094982610900565b810181811067ffffffffffffffff8211171561096857610967610911565b5b80604052505050565b600061097b6108e2565b90506109878282610940565b919050565b600067ffffffffffffffff8211156109a7576109a6610911565b5b6109b082610900565b9050602081019050919050565b82818337600083830152505050565b60006109df6109da8461098c565b610971565b9050828152602081018484840111156109fb576109fa6108fb565b5b610a068482856109bd565b509392505050565b600082601f830112610a2357610a226108f6565b5b8135610a338482602086016109cc565b91505092915050565b600060208284031215610a5257610a516108ec565b5b600082013567ffffffffffffffff811115610a7057610a6f6108f1565b5b610a7c84828501610a0e565b91505092915050565b600081519050919050565b600082825260208201905092915050565b60005b83811015610abf578082015181840152602081019050610aa4565b60008484015250505050565b6000610ad682610a85565b610ae08185610a90565b9350610af0818560208601610aa1565b610af981610900565b840191505092915050565b600073ffffffffffffffffffffffffffffffffffffffff82169050919050565b6000610b2f82610b04565b9050919050565b610b3f81610b24565b82525050565b6000819050919050565b610b5881610b45565b82525050565b60008115159050919050565b610b7381610b5e565b82525050565b600060c0830160008301518482036000860152610b968282610acb565b91505060208301518482036020860152610bb08282610acb565b91505060408301518482036040860152610bca8282610acb565b9150506060830151610bdf6060860182610b36565b506080830151610bf26080860182610b4f565b5060a0830151610c0560a0860182610b6a565b508091505092915050565b60006020820190508181036000830152610c2a8184610b79565b905092915050565b610c3b81610b5e565b82525050565b600082825260208201905092915050565b6000610c5d82610a85565b610c678185610c41565b9350610c77818560208601610aa1565b610c8081610900565b840191505092915050565b610c9481610b24565b82525050565b610ca381610b45565b82525050565b600060a082019050610cbe6000830188610c32565b8181036020830152610cd08187610c52565b90508181036040830152610ce48186610c52565b9050610cf36060830185610c8b565b610d006080830184610c9a565b9695505050505050565b600080600060608486031215610d2357610d226108ec565b5b600084013567ffffffffffffffff811115610d4157610d406108f1565b5b610d4d86828701610a0e565b935050602084013567ffffffffffffffff811115610d6e57610d6d6108f1565b5b610d7a86828701610a0e565b925050604084013567ffffffffffffffff811115610d9b57610d9a6108f1565b5b610da786828701610a0e565b9150509250925092565b600081905092915050565b6000610dc782610a85565b610dd18185610db1565b9350610de1818560208601610aa1565b80840191505092915050565b6000610df98284610dbc565b915081905092915050565b7f446f63756d656e74206e6f7420666f756e640000000000000000000000000000600082015250565b6000610e3a601283610c41565b9150610e4582610e04565b602082019050919050565b60006020820190508181036000830152610e6981610e2d565b9050919050565b7f4e487b7100000000000000000000000000000000000000000000000000000000600052602260045260246000fd5b60006002820490506001821680610eb757607f821691505b602082108103610eca57610ec9610e70565b5b50919050565b7f486173682063616e6e6f7420626520656d707479000000000000000000000000600082015250565b6000610f06601483610c41565b9150610f1182610ed0565b602082019050919050565b60006020820190508181036000830152610f3581610ef9565b9050919050565b7f446f63756d656e7420616c72656164792073746f726564000000000000000000600082015250565b6000610f72601783610c41565b9150610f7d82610f3c565b602082019050919050565b60006020820190508181036000830152610fa181610f65565b9050919050565b60008190508160005260206000209050919050565b60006020601f8301049050919050565b600082821b905092915050565b60006008830261100a7fffffffffffffffffffffffffffffffffffffffffffffffffffffffffffffffff82610fcd565b6110148683610fcd565b95508019841693508086168417925050509392505050565b6000819050919050565b600061105161104c61104784610b45565b61102c565b610b45565b9050919050565b6000819050919050565b61106b83611036565b61107f61107782611058565b848454610fda565b825550505050565b600090565b611094611087565b61109f818484611062565b505050565b5b818110156110c3576110b860008261108c565b6001810190506110a5565b5050565b601f821115611108576110d981610fa8565b6110e284610fbd565b810160208510156110f1578190505b6111056110fd85610fbd565b8301826110a4565b50505b505050565b600082821c905092915050565b600061112b6000198460080261110d565b1980831691505092915050565b6000611144838361111a565b9150826002028217905092915050565b61115d82610a85565b67ffffffffffffffff81111561117657611175610911565b5b6111808254610e9f565b61118b8282856110c7565b600060209050601f8311600181146111be57600084156111ac578287015190505b6111b68582611138565b86555061121e565b601f1984166111cc86610fa8565b60005b828110156111f4578489015182556001820191506020850194506020810190506111cf565b86831015611211578489015161120d601f89168261111a565b8355505b6001600288020188555050505b505050505050565b600060808201905081810360008301526112408187610c52565b905081810360208301526112548186610c52565b90506112636040830185610c8b565b6112706060830184610c9a565b9594505050505056fea26469706673582212205c2348d280e4a24e60d30c56885e00d18305ba7aca079872d1a8c00bf36631d464736f6c63430008180033",
  "linkReferences": {},
  "deployedLinkReferences": {}
}