{
  "_format": "hh-sol-artifact-1",
  "contractName": "ShipmentTracking",
  "sourceName": "contracts/ShipmentTracking.sol",
  "abi": [
    {
      "inputs": [],
      "stateMutability": "nonpayable",
      "type": "constructor"
    },
    {
      "anonymous": false,
      "inputs": [
        {
          "indexed": true,
          "internalType": "string",
          "name": "trackingNumber",
          "type": "string"
        },
        {
          "indexed": true,
          "internalType": "address",
          "name": "createdBy",
          "type": "address"
        },
        {
          "indexed": false,
          "internalType": "uint256",
          "name": "timestamp",
          "type": "uint256"
        }
      ],
      "name": "ShipmentCreated",
      "type": "event"
    },
    {
      "anonymous": false,
      "inputs": [
        {
          "indexed": true,
          "internalType": "string",
          "name": "trackingNumber",
          "type": "string"
        },
        {
          "indexed": false,
          "internalType": "string",
          "name": "newStatus",
          "type": "string"
        },
        {
          "indexed": true,
          "internalType": "address",
          "name": "updatedBy",
          "type": "address"
        },
        {
          "indexed": false,
          "internalType": "uint256",
          "name": "timestamp",
          "type": "uint256"
        }
      ],
      "name": "StatusUpdated",
      "type": "event"
    },
    {
      "inputs": [
        {
          "internalType": "uint256",
          "name": "",
          "type": "uint256"
        }
      ],
      "name": "allTrackingNumbers",
      "outputs": [
        {
          "internalType": "string",
          "name": "",
          "type": "string"
        }
      ],
      "stateMutability": "view",
      "type": "function"
    },
    {
      "inputs": [
        {
          "internalType": "string",
          "name": "trackingNumber",
          "type": "string"
        },
        {
          "internalType": "string",
          "name": "initialStatus",
          "type": "string"
        }
      ],
      "name": "createShipment",
      "outputs": [],
      "stateMutability": "nonpayable",
      "type": "function"
    },
    {
      "inputs": [
        {
          "internalType": "string",
          "name": "trackingNumber",
          "type": "string"
        }
      ],
      "name": "getShipment",
      "outputs": [
        {
          "internalType": "address",
          "name": "createdBy",
          "type": "address"
        },
        {
          "internalType": "uint256",
          "name": "createdAt",
          "type": "uint256"
        },
        {
          "internalType": "uint256",
          "name": "historyCount",
          "type": "uint256"
        }
      ],
      "stateMutability": "view",
      "type": "function"
    },
    {
      "inputs": [
        {
          "internalType": "string",
          "name": "trackingNumber",
          "type": "string"
        },
        {
          "internalType": "uint256",
          "name": "index",
          "type": "uint256"
        }
      ],
      "name": "getStatusAt",
      "outputs": [
        {
          "internalType": "string",
          "name": "status",
          "type": "string"
        },
        {
          "internalType": "string",
          "name": "note",
          "type": "string"
        },
        {
          "internalType": "address",
          "name": "updatedBy",
          "type": "address"
        },
        {
          "internalType": "uint256",
          "name": "timestamp",
          "type": "uint256"
        }
      ],
      "stateMutability": "view",
      "type": "function"
    },
    {
      "inputs": [],
      "name": "getTotalShipments",
      "outputs": [
        {
          "internalType": "uint256",
          "name": "",
          "type": "uint256"
        }
      ],
      "stateMutability": "view",
      "type": "function"
    },
    {
      "inputs": [],
      "name": "owner",
      "outputs": [
        {
          "internalType": "address",
          "name": "",
          "type": "address"
        }
      ],
      "stateMutability": "view",
      "type": "function"
    },
    {
      "inputs": [
        {
          "internalType": "string",
          "name": "trackingNumber",
          "type": "string"
        }
      ],
      "name": "shipmentExists",
      "outputs": [
        {
          "internalType": "bool",
          "name": "",
          "type": "bool"
        }
      ],
      "stateMutability": "view",
      "type": "function"
    },
    {
      "inputs": [
        {
          "internalType": "string",
          "name": "trackingNumber",
          "type": "string"
        },
        {
          "internalType": "string",
          "name": "newStatus",
          "type": "string"
        },
        {
          "internalType": "string",
          "name": "note",
          "type": "string"
        }
      ],
      "name": "updateStatus",
      "outputs": [],
      "stateMutability": "nonpayable",
      "type": "function"
    }
  ],
  "bytecode": "0x608060405234801561001057600080fd5b5033600260006101000a81548173ffffffffffffffffffffffffffffffffffffffff021916908373ffffffffffffffffffffffffffffffffffffffff160217905550611513806100616000396000f3fe608060405234801561001057600080fd5b50600436106100885760003560e01c80638da5cb5b1161005b5780638da5cb5b14610127578063b983753714610145578063c268682914610178578063da34f3d51461019457610088565b80630fecaabf1461008d5780633def2b52146100bd578063649bcec8146100d9578063885301b214610109575b600080fd5b6100a760048036038101906100a29190610aeb565b6101c6565b6040516100b49190610ba8565b60405180910390f35b6100d760048036038101906100d29190610cff565b610272565b005b6100f360048036038101906100ee9190610d77565b610577565b6040516101009190610ddb565b60405180910390f35b6101116105ae565b60405161011e9190610e05565b60405180910390f35b61012f6105bb565b60405161013c9190610e61565b60405180910390f35b61015f600480360381019061015a9190610e7c565b6105e1565b60405161016f9493929190610ed8565b60405180910390f35b610192600480360381019061018d9190610f2b565b6107f5565b005b6101ae60048036038101906101a99190610d77565b6109ce565b6040516101bd93929190610fd2565b60405180910390f35b600181815481106101d657600080fd5b9060005260206000200160009150905080546101f190611038565b80601f016020809104026020016040519081016040528092919081815260200182805461021d90611038565b801561026a5780601f1061023f5761010080835404028352916020019161026a565b820191906000526020600020905b81548152906001019060200180831161024d57829003601f168201915b505050505081565b60008260405161028291906110a5565b908152602001604051809103902060030160009054906101000a900460ff16156102e1576040517f08c379a00000000000000000000000000000000000000000000000000000000081526004016102d890611108565b60405180910390fd5b6000825111610325576040517f08c379a000000000000000000000000000000000000000000000000000000000815260040161031c90611174565b60405180910390fd5b6000808360405161033691906110a5565b90815260200160405180910390209050828160000190816103579190611340565b50338160010160006101000a81548173ffffffffffffffffffffffffffffffffffffffff021916908373ffffffffffffffffffffffffffffffffffffffff16021790555042816002018190555060018160030160006101000a81548160ff0219169083151502179055508060040160405180608001604052808481526020016040518060400160405280601e81526020017f536869706d656e742063726561746564206f6e20626c6f636b636861696e000081525081526020013373ffffffffffffffffffffffffffffffffffffffff168152602001428152509080600181540180825580915050600190039060005260206000209060040201600090919091909150600082015181600001908161046f9190611340565b5060208201518160010190816104859190611340565b5060408201518160020160006101000a81548173ffffffffffffffffffffffffffffffffffffffff021916908373ffffffffffffffffffffffffffffffffffffffff16021790555060608201518160030155505060018390806001815401808255809150506001900390600052602060002001600090919091909150908161050d9190611340565b503373ffffffffffffffffffffffffffffffffffffffff168360405161053391906110a5565b60405180910390207f29ce2d41041a84f2d50443ae877a29c6f7eb7beac1e29cbeda448e088e3e8ea44260405161056a9190610e05565b60405180910390a3505050565b6000808260405161058891906110a5565b908152602001604051809103902060030160009054906101000a900460ff169050919050565b6000600180549050905090565b600260009054906101000a900473ffffffffffffffffffffffffffffffffffffffff1681565b6060806000806000866040516105f791906110a5565b908152602001604051809103902060030160009054906101000a900460ff16610655576040517f08c379a000000000000000000000000000000000000000000000000000000000815260040161064c9061145e565b60405180910390fd5b6000808760405161066691906110a5565b908152602001604051809103902060040186815481106106895761068861147e565b5b9060005260206000209060040201905080600001816001018260020160009054906101000a900473ffffffffffffffffffffffffffffffffffffffff1683600301548380546106d790611038565b80601f016020809104026020016040519081016040528092919081815260200182805461070390611038565b80156107505780601f1061072557610100808354040283529160200191610750565b820191906000526020600020905b81548152906001019060200180831161073357829003601f168201915b5050505050935082805461076390611038565b80601f016020809104026020016040519081016040528092919081815260200182805461078f90611038565b80156107dc5780601f106107b1576101008083540402835291602001916107dc565b820191906000526020600020905b8154815290600101906020018083116107bf57829003601f168201915b5050505050925094509450945094505092959194509250565b60008360405161080591906110a5565b908152602001604051809103902060030160009054906101000a900460ff16610863576040517f08c379a000000000000000000000000000000000000000000000000000000000815260040161085a9061145e565b60405180910390fd5b60008360405161087391906110a5565b908152602001604051809103902060040160405180608001604052808481526020018381526020013373ffffffffffffffffffffffffffffffffffffffff16815260200142815250908060018154018082558091505060019003906000526020600020906004020160009091909190915060008201518160000190816108f99190611340565b50602082015181600101908161090f9190611340565b5060408201518160020160006101000a81548173ffffffffffffffffffffffffffffffffffffffff021916908373ffffffffffffffffffffffffffffffffffffffff1602179055506060820151816003015550503373ffffffffffffffffffffffffffffffffffffffff168360405161098891906110a5565b60405180910390207f169643a8db74f57c6a9dea08efd64e687751e292a4b80bfe9307a8f5474ad9b984426040516109c19291906114ad565b60405180910390a3505050565b600080600080846040516109e291906110a5565b908152602001604051809103902060030160009054906101000a900460ff16610a40576040517f08c379a0000000000000000000000000000000000000000000000000000000008152600401610a379061145e565b60405180910390fd5b60008085604051610a5191906110a5565b908152602001604051809103902090508060010160009054906101000a900473ffffffffffffffffffffffffffffffffffffffff1681600201548260040180549050935093509350509193909250565b6000604051905090565b600080fd5b600080fd5b6000819050919050565b610ac881610ab5565b8114610ad357600080fd5b50565b600081359050610ae581610abf565b92915050565b600060208284031215610b0157610b00610aab565b5b6000610b0f84828501610ad6565b91505092915050565b600081519050919050565b600082825260208201905092915050565b60005b83811015610b52578082015181840152602081019050610b37565b60008484015250505050565b6000601f19601f8301169050919050565b6000610b7a82610b18565b610b848185610b23565b9350610b94818560208601610b34565b610b9d81610b5e565b840191505092915050565b60006020820190508181036000830152610bc28184610b6f565b905092915050565b600080fd5b600080fd5b7f4e487b7100000000000000000000000000000000000000000000000000000000600052604160045260246000fd5b610c0c82610b5e565b810181811067ffffffffffffffff82111715610c2b57610c2a610bd4565b5b80604052505050565b6000610c3e610aa1565b9050610c4a8282610c03565b919050565b600067ffffffffffffffff821115610c6a57610c69610bd4565b5b610c7382610b5e565b9050602081019050919050565b82818337600083830152505050565b6000610ca2610c9d84610c4f565b610c34565b905082815260208101848484011115610cbe57610cbd610bcf565b5b610cc9848285610c80565b509392505050565b600082601f830112610ce657610ce5610bca565b5b8135610cf6848260208601610c8f565b91505092915050565b60008060408385031215610d1657610d15610aab565b5b600083013567ffffffffffffffff811115610d3457610d33610ab0565b5b610d4085828601610cd1565b925050602083013567ffffffffffffffff811115610d6157610d60610ab0565b5b610d6d85828601610cd1565b9150509250929050565b600060208284031215610d8d57610d8c610aab565b5b600082013567ffffffffffffffff811115610dab57610daa610ab0565b5b610db784828501610cd1565b91505092915050565b60008115159050919050565b610dd581610dc0565b82525050565b6000602082019050610df06000830184610dcc565b92915050565b610dff81610ab5565b82525050565b6000602082019050610e1a6000830184610df6565b92915050565b600073ffffffffffffffffffffffffffffffffffffffff82169050919050565b6000610e4b82610e20565b9050919050565b610e5b81610e40565b82525050565b6000602082019050610e766000830184610e52565b92915050565b60008060408385031215610e9357610e92610aab565b5b600083013567ffffffffffffffff811115610eb157610eb0610ab0565b5b610ebd85828601610cd1565b9250506020610ece85828601610ad6565b9150509250929050565b60006080820190508181036000830152610ef28187610b6f565b90508181036020830152610f068186610b6f565b9050610f156040830185610e52565b610f226060830184610df6565b95945050505050565b600080600060608486031215610f4457610f43610aab565b5b600084013567ffffffffffffffff811115610f6257610f61610ab0565b5b610f6e86828701610cd1565b935050602084013567ffffffffffffffff811115610f8f57610f8e610ab0565b5b610f9b86828701610cd1565b925050604084013567ffffffffffffffff811115610fbc57610fbb610ab0565b5b610fc886828701610cd1565b9150509250925092565b6000606082019050610fe76000830186610e52565b610ff46020830185610df6565b6110016040830184610df6565b949350505050565b7f4e487b7100000000000000000000000000000000000000000000000000000000600052602260045260246000fd5b6000600282049050600182168061105057607f821691505b60208210810361106357611062611009565b5b50919050565b600081905092915050565b600061107f82610b18565b6110898185611069565b9350611099818560208601610b34565b80840191505092915050565b60006110b18284611074565b915081905092915050565b7f536869706d656e7420616c726561647920657869737473000000000000000000600082015250565b60006110f2601783610b23565b91506110fd826110bc565b602082019050919050565b60006020820190508181036000830152611121816110e5565b9050919050565b7f547261636b696e67206e756d6265722072657175697265640000000000000000600082015250565b600061115e601883610b23565b915061116982611128565b602082019050919050565b6000602082019050818103600083015261118d81611151565b9050919050565b60008190508160005260206000209050919050565b60006020601f8301049050919050565b600082821b905092915050565b6000600883026111f67fffffffffffffffffffffffffffffffffffffffffffffffffffffffffffffffff826111b9565b61120086836111b9565b95508019841693508086168417925050509392505050565b6000819050919050565b600061123d61123861123384610ab5565b611218565b610ab5565b9050919050565b6000819050919050565b61125783611222565b61126b61126382611244565b8484546111c6565b825550505050565b600090565b611280611273565b61128b81848461124e565b505050565b5b818110156112af576112a4600082611278565b600181019050611291565b5050565b601f8211156112f4576112c581611194565b6112ce846111a9565b810160208510156112dd578190505b6112f16112e9856111a9565b830182611290565b50505b505050565b600082821c905092915050565b6000611317600019846008026112f9565b1980831691505092915050565b60006113308383611306565b9150826002028217905092915050565b61134982610b18565b67ffffffffffffffff81111561136257611361610bd4565b5b61136c8254611038565b6113778282856112b3565b600060209050601f8311600181146113aa5760008415611398578287015190505b6113a28582611324565b86555061140a565b601f1984166113b886611194565b60005b828110156113e0578489015182556001820191506020850194506020810190506113bb565b868310156113fd57848901516113f9601f891682611306565b8355505b6001600288020188555050505b505050505050565b7f536869706d656e74206e6f7420666f756e640000000000000000000000000000600082015250565b6000611448601283610b23565b915061145382611412565b602082019050919050565b600060208201905081810360008301526114778161143b565b9050919050565b7f4e487b7100000000000000000000000000000000000000000000000000000000600052603260045260246000fd5b600060408201905081810360008301526114c78185610b6f565b90506114d66020830184610df6565b939250505056fea26469706673582212209ad28542b2d3420c16b0d3428d27727cb1b8293521039b749082e83549b30ece64736f6c63430008140033",
  "linkReferences": {},
  "deployedLinkReferences": {}
}